:020000002100DD
:1001000075813FC2AF12013390011893F4F580D28C
:1001100094C29512012980ED77116D5D1B5E7E15ED
:100120007F5F3F7A66796E2E08E4F5F0D5E0FDD565
:10013000F0FA2275A0FE75F00130A46675F0023069
:10014000A56075F00330A65A75F00A30A75475A063
:10015000FD75F00430A44B75F00530A54575F0062B
:1001600030A63F75F00B30A73975A0FB75F007304E
:10017000A43075F00830A52A75F00930A62475F072
:100180000C30A71E75A0F775F00E30A41575F000A1
:1001900030A50F75F00F30A60975F00D30A7037567
:0501A000F010E5F02263
:00000001FF
