:020000002100DD
:1001000075813FC2AF1201451201721201C37F0A0D
:100110009001F01201C81201BA12013EDFF2900202
:100120000E1201C81201BA80FEC0077F5002015AA8
:10013000C0077F2802015AC0077F1402015AC00776
:100140007F0A02015AC0077F0502015AC0077F02D9
:1001500002015AC0077F0102015AC0E0C0F075F0E9
:10016000C874BFD5E0FDD5F0F8DFF3D0F0D0E0D013
:100170000722758921759850758DFB7400F587C22B
:10018000AFD28E22C0E0C412018CD0E0C083C08206
:100190009001AA540F93D082D083C0A8C2ACC29958
:1001A000F5993099FDC299D0A822303132333435D7
:1001B00036373839414243444546740D319A740A02
:1001C000319A22740C319A22E4936005319AA3800B
:1001D000F722C0A8C2ACC299F5993099FDC299D056
:1001E000A822C0A8C2AC3098FDC298E599D0A82238
:1001F0004236353135363532204E4144544841502F
:10020000415420505554544152554B5341004920BC
:0702100057616E74204100EC
:00000001FF
