:020000002100DD
:1001000075813FC2AF75985075CBFF75CAC475C86D
:1001100034C2983098FDE599B43009D2B774011211
:10012000019A80EDB43109D2B7740212019A80E1CC
:10013000B43209D2B7740312019A80D5B43309D20C
:10014000B7740412019A80C9B43409D2B774051285
:10015000019A80BDB43509D2B7740612019A80B1F4
:10016000B43609D2B7740712019A80A5B43709D200
:10017000B7740812019A8099B43809D2B774091279
:10018000019A808DB43909D2B7740A12019A80811C
:1001900000D2B7740012019A21119001A693F4F5D0
:1001A00080C294C295220877116D5D1B5E7E157F1B
:1001B0005F3F7A66796E2E7B03EB8BF0DBFED5E03A
:0501C000FBD5F0F82260
:00000001FF
