:100000000201620201E7000000000032000000006F
:1000100000000002025E000000000032000000004C
:100020000000003200000000000000320000AE02BC
:10003000E6F70809DEFA22740D120042740A120073
:1000400042223099FDC299F5992278C87902D8FEEA
:10005000D9FCD5E0F522AE02760008DEFB22780C52
:100060001156200111C2D574082A14F8E630E706AB
:10007000B2D5780811D920010F74102A14F8E6308F
:10008000E706B2D5781011D97810790875F008EA2A
:10009000A4FBE626F6C0D0BA0104D0D0800BD0D0A5
:1000A000AE021E08E633F6DEFA780CAE02E633F650
:1000B00008DEFAAE02780CE6970908DEFA19781025
:1000C00040127908C3780CAE02E697F60908DEF90B
:1000D000781019067908DBBA22AE02D3E6F43400B0
:1000E000F608DEF822C0017910112ED001C001748B
:1000F000102A14F8E6C0E0780811567808760AE964
:10010000240FF9E4F719C001115E780CD001E62440
:1001100030F77810AE02E44608DEFC70E8D0E0204C
:10012000010730E704742D19F7A801D0017A1031C6
:100130003222E6F760040809DAF8E4F722E66006FE
:100140001200420880F722C3EC33FCED33FDE58258
:100150002CF582E5833DF583E493F508A3E493F55C
:10016000092278FFE4F6D8FD758135C28E75985264
:10017000758922438780758DFAD28E75200074FAB6
:10018000114A740C1142D2AFD2A8D288D2AAD28A14
:1001900075F00AE53484C0F07832D0E0F6AC327DF8
:1001A000009002D612014E850833D294C295E533F1
:1001B000F485E0807450114A75F00AE53484C0E09B
:1001C0007832D0E0F6AC327D009002D612014E8536
:1001D0000833C294D295E533F485E0807450114A17
:1001E000020190C2AF80FE0534E534B463028002A0
:1001F00050030201F8753400780BE88360061200A2
:10020000420880F6020226412068617264776172BA
:100210006520696E74657272757074206F636375A2
:100220007272656421001137780BE8836006120052
:10023000420880F60202454461746120696E64657B
:1002400078203D200078347A017921D20111E5C26D
:10025000017821313D113774FA114AC2893278345C
:1002600016E534B4630280025003020270753463F1
:10027000780BE88360061200420880F602029E4175
:1002800020686172647761726520696E746572724C
:10029000757074206F636375727265642100113725
:1002A000780BE88360061200420880F60202BD4423
:1002B00061746120696E646578203D200078347A2D
:1002C000017921D20111E5C2017821313D11377444
:1002D000FA114AC28B3277116D5D1B5E7E157F5F0E
:1002E0003F7A66796E2E00000000000000000000DA
:00000001FF
