:0300000002000EED
:03000300020042B6
:03000B0002006E82
:0F000E0075810DE4787FF6D8FD75A0FF0200A97B
:10001D0077116D5D1B5E7E157F5F3F7A66796E2E63
:03002D00EF601170
:100030007E017C71DCFE7D720EEE64FB70F41F802D
:02004000EC22B0
:10004200C0E0C0D0C004C005C006C007C2A8050BEE
:10005200E50B7002050A7F0412002DD2A8C289D0D6
:0C00620007D006D005D004D0D0D0E0328A
:10006E00C0E0C0D0C004C005C006C007C288C2AA86
:0D007E00E50AB40006E50BB40001D340080C
:10008B00E50B150B7002150A7F0412002DD2AAC2C4
:0E009B008BD007D006D005D004D0D0D0E032F4
:0A00A900D288D28AD2A8D2AAD2AF20
:1000B300E50B540F750800F509D294C29590001D05
:1000C30093F4F5807EFADEFEAB0BE50A75F004C30C
:1000D30013CB13CBD5F0F8EB540F750800F509C219
:0E00E30094D29590001D93F4F5807EFADEFE17
:0200F10080C0CD
:00000001FF
