:020000002100DD
:1001000075812FC2AF75200512016FD290D291D2A6
:1001100092D293209013052012019112016F1201C7
:100120007F3090FD12017F80E2209115052005208F
:1001300012019112016F12017F3091FD12017F8037
:10014000CA20921315201201A412016F12017F30F0
:1001500092FD12017F80B42093B915201520120161
:10016000A412016F12017F3093FD12017F809CE584
:10017000209001B7540F93F4F580D294C29522C019
:10018000F0C0E0E4F5F0D5E0FDD5F0FAD0E0D0F035
:1001900022C0E0C0D0E520C3940A4003752009D0F6
:1001A000D0D0E022C0E0C0D0E520C3940A4003755F
:1001B0002000D0D0D0E02277116D5D1B5E7E157FD0
:0701C0005F3F7A66796E2EA5
:00000001FF
