:108000007800796D12803E128073780179061280B3
:108010003E1280737802796D12803E12807378036D
:10802000797D12803E1280737804796D12803E1241
:1080300080737805795B12803E12807380C290E075
:1080400002E8F090E001E9F0E4D5E0FD221280546E
:1080500012805422128083128083128083128083C4
:108060001280831280831280831280831280831295
:108070008083221280831280831280831280831275
:108080008083227EC812808BDEFB227DE6DDFE220D
:00000001FF
