:020000002100DD
:1001000075813FC2AF75985075CBFF75CAC475C86D
:1001100034C2983098FDE599B44107740A120193EE
:1001200080EFB44207740B12019380E5B43007747A
:100130000012019380DBB43107740112019380D166
:10014000B43207740212019380C7B43307740312E8
:10015000019380BDB43407740412019380B3B435A5
:1001600007740512019380A9B4360774061201932F
:10017000809FB4370774071201938095B4380774D1
:1001800008120193808BB43907740912019380819E
:1001900000211190019F93F4F580C294C2952277BB
:0F01A000116D5D1B5E7E157F5F3F7A66796E2E57
:00000001FF
